:020000040800F2
:10000000380400200D020008B30C0008BB090008EA
:10001000B10C000819030008E50D000800000000FD
:10002000000000000000000000000000FF0C0008BD
:100030001B03000800000000D70C0008010D000899
:1000400027020008270200082702000827020008EC
:1000500027020008270200082702000827020008DC
:1000600027020008270200082702000827020008CC
:1000700027020008270200082702000827020008BC
:1000800027020008270200082702000827020008AC
:10009000270200082702000827020008270200089C
:1000A000270200082702000827020008270200088C
:1000B000270200082702000827020008270200087C
:1000C000270200082702000827020008270200086C
:1000D000270200082702000827020008270200085C
:1000E000270200082702000827020008270200084C
:1000F000270200082702000827020008270200083C
:10010000270200082702000827020008270200082B
:10011000270200082702000827020008270200081B
:10012000270200082702000827020008270200080B
:1001300027020008270200082702000827020008FB
:1001400027020008270200082702000827020008EB
:1001500027020008270200082702000827020008DB
:1001600027020008270200082702000827020008CB
:1001700027020008270200082702000800000000EC
:1001800027020008270200082702000827020008AB
:10019000270200082702000827020008270200089B
:1001A000270200082702000827020008270200088B
:1001B000270200082702000827020008270200087B
:1001C000270200082702000800000000270200089C
:1001D000270200082702000827020008270200085B
:1001E000270200082702000827020008270200084B
:1001F0002702000827020008DFF80CD000F07AF888
:1002000000480047050E00083804002006488047D3
:1002100006480047FEE7FEE7FEE7FEE7FEE7FEE7EB
:10022000FEE7FEE7FEE7FEE7910D0008F901000892
:100230002DE9F05F0546002092469B46884606461B
:10024000814640241BE0284641464746224600F0AE
:1002500041F853465A46C01A914110D311461846E8
:10026000224600F028F82D1A67EB01084F46224677
:100270000120002100F01FF817EB00094E41201E5D
:10028000A4F10104DFDC484631462A464346BDE876
:10029000F09FD2B201E000F8012B491EFBD270475B
:1002A0000022F6E710B513460A4604461946FFF742
:1002B000F0FF204610BD202A04DB203A00FA02F1AC
:1002C000002070479140C2F1200320FA03F3194344
:1002D00090407047202A04DB203A21FA02F00021E6
:1002E000704721FA02F3D040C2F120029140084346
:1002F00019467047064C074D06E0E06840F00103E0
:1003000094E8070098471034AC42F6D3FFF778FF23
:100310003411000854110008FEE7704770B5044618
:1003200000F012F80546601C02D00448007804442E
:1003300000F00AF8401BA042FAD370BD0400002070
:1003400042694A4042617047014880687047000036
:1003500004000020024881680278114481607047DF
:1003600004000020032010B500F060F8002000F029
:1003700005F800F023F8002010BD000070B50D4D09
:1003800004464FF47A700C4A29781268B0FBF1F0F9
:10039000B2FBF0F000F0FEFA48B9102C07D20022B0
:1003A0002146501E00F022F800206C6070BD012034
:1003B00070BD000004000020100000200A4808B5AD
:1003C000016841F080510160006800F080500090A9
:1003D0000548001D016841F480410160006800F497
:1003E0008040009008BD0000403802400E4BF0B441
:1003F0001B680D46C3F30223C3F10706042E00D980
:100400000426191D072901D2002300E0DB1E012468
:1004100004FA06F19C40491E2940641E994014408C
:100420002143F0BC00F046BC0CED00E0064900F0B2
:10043000070210B54FF6FF040868044B204040EA5D
:1004400002201843086010BD0CED00E00000FA0522
:100450001848F8B5016841F0805101600068164CF9
:1004600000F080500090206840F480302060FFF75A
:100470006BFF4FF47A76054605E000BFFFF764FF97
:10048000401BB0420FD86068C003F7D5206840F425
:1004900000302060FFF758FF054606E0FFF754FFE5
:1004A000401BB04201D90320F8BD60688003F5D538
:1004B0000020F8BD4038024000700040024801684A
:1004C00041F4807101607047007000402DE9F047F1
:1004D00005000F4663D0444E306800F00F00B8426C
:1004E00009D2306820F00F0038433060306800F0E7
:1004F0000F00B84253D128683C4C810712D5400701
:1005000003D5206840F4E05020602878000703D528
:10051000206840F460402060A968206820F0F00066
:10052000084320602878C0072AD030496868083915
:10053000012810D00968022810D0890700292EDA76
:10054000216821F0030101432160FFF7FDFE804691
:1005500041F288390DE009688903EFE78901EDE789
:10056000FFF7F2FEA0EB0801494502D90320BDE8E0
:10057000F0876868216801F00C01B1EB800FEFD1C2
:10058000306800F00F00B8420BD9306820F00F003F
:1005900038433060306800F00F00B84201D00120CD
:1005A000E5E72878400705D5E968206820F4E050A1
:1005B000084320602878000706D52869216821F4BF
:1005C000604141EAC000206000F016F82168084A46
:1005D000C1F30311515CC840064908600020FFF7D1
:1005E000CDFE0020C3E70000003C02400838024076
:1005F0002411000810000020154910B5154809689D
:1006000011F00C0213D04110042A0FD0082A0ED189
:100610000F4C241F2268236802F03F025B0207D5BB
:100620002068C0F38810A0FB010106E0084610BD59
:100630002168C1F38811A1FB00010023FFF7F8FD39
:100640002168C1F30141491C4900B0FBF1F010BD24
:10065000083802400024F4002DE9F84F05004FF05F
:1006600000076ED02878DFF82093A9F1040AC007AC
:10067000AAF104044CD0D9F800104846C1F3810116
:10068000012908D00068C0F3810002280AD1DAF8F5
:100690000000400206D52068800339D5686800282C
:1006A000DFD035E06868B0F5803F0BD010B1B0F511
:1006B000A02F11D0206820F480302060206820F422
:1006C000802002E0206840F480302060686890B1AB
:1006D000FFF73AFE06460AE0206840F480202060DA
:1006E000F0E700BFFFF730FE801B642872D8206857
:1006F0008003F7D50CE0FFF727FE064605E000BFB4
:10070000FFF722FE801B6428F0D820688003F7D40E
:100710002878800742D5D9F80010484611F00C0F10
:1007200008D00068C0F3810002280BD1DAF800007D
:10073000400207D42068800718D5E868012800D156
:1007400014E01EE1E8680028206817D040F001009E
:100750002060FFF7F9FD064605E000BFFFF7F4FD56
:10076000801B0228C2D820688007F7D52869216835
:1007700021F0F80141EAC00020600FE020F0010004
:100780002060FFF7E1FD064605E000BFFFF7DCFD56
:10079000801B02281ED820688007F7D4287800071D
:1007A00029D5794869696C3000298046016812D0E2
:1007B00041F001010160FFF7C7FD064605E000BFFB
:1007C000FFF7C2FD801B022804D8D8F8000080077C
:1007D000F6D510E089E021F001010160FFF7B4FDDA
:1007E000064604E0FFF7B0FD801B02287DD8D8F84C
:1007F00000008007F6D4287840076BD5DFF88881A1
:1008000008F13808D8F80000C0000BD4D8F8001060
:1008100041F08051C8F80010D8F80000012700F01E
:100820008050009059480168C90512D40168834678
:1008300041F480710160FFF787FD064605E000BFC7
:10084000FFF782FD801B64284FD8DBF80000C0054D
:10085000F6D54D4EA868683601280AD008B105289B
:1008600011D0306820F001003060306820F00400C2
:1008700002E0306840F001003060A868A0B1FFF7E6
:1008800063FD83460CE0306840F004003060F0E720
:10089000FFF75AFDA0EB0B0141F28830814268D886
:1008A00030688007F4D50EE0FFF74EFD834607E081
:1008B000FFF74AFDA0EB0B0141F28830814258D886
:1008C00030688007F4D42FB1D8F8001021F080519F
:1008D000C8F80010A869E0B3D9F80010C1F381018D
:1008E00002294ED00228206800E042E020F080700B
:1008F000206003D0FFF728FD05463DE0FFF724FD0B
:10090000064604E0FFF720FD801B022831D820684E
:100910008001F7D4D5E90921DFF874C0D5E90706CD
:1009200095F830304F0895F82C1030430CEB074504
:1009300045EA8212104340EA016040EA0370CAF8B7
:100940000000206840F080702060FFF7FDFC054645
:1009500005E014E0FFF7F8FC401B022809D82068E6
:100960008001F7D50BE000BFFFF7EEFC401B02282B
:1009700002D90320BDE8F88F20688001F4D400205C
:10098000F8E70120F6E70000083802400070004058
:100990000000FFFF401EB0F1807F10B501D30120A1
:1009A00010BD4FF0E02460610F21601700F082F964
:1009B0000020A0610721216110BDFEE7044908B5B0
:1009C0000A6802430A6009680140009108BD0000FE
:1009D00030380240F0B50A6803240F2592FAA2F2DB
:1009E000B2FA82F37EE001269E40324079D092FA3C
:1009F000A2FC076892FAA2F6BCFA8CFCB6FA86FE54
:100A00004E684FEA4C0C4FEA4E0E04FA0CFC06FA04
:100A10000EF627EA0C07374307604E68012E01D017
:100A2000022E15D192FAA2FC876892FAA2F6BCFABD
:100A30008CFCB6FA86FE8E684FEA4C0C4FEA4E0EDE
:100A400004FA0CFC06FA0EF627EA0C073743876017
:100A500092FAA2F6C76892FAA2FCB6FA86F6BCFA37
:100A60008CFE4FEA460C0E694FEA4E0E04FA0CFC5F
:100A700006FA0EF627EA0C073743C7604E68022EC7
:100A80002FD192FAA2F6B6FA86F6082E14D292FA6E
:100A9000A2F7066A92FAA2F2B7FA87F7B2FA82FCD4
:100AA0004A69BF004FEA8C0C05FA07F7BE4302FA09
:100AB0000CF21643066214E0466A120A92FAA2F792
:100AC00092FAA2FC4A69B7FA87F7BCFA8CFCBF001D
:100AD0004FEA8C0C05FA07F7BE4302FA0CF21643F4
:100AE00046625B1C0A6832FA03F67FF47CAF4A6800
:100AF000012A01D0022A06D143680A68C9689343D3
:100B000051430B4343600120F0BD70B503680022E0
:100B1000C3F3801333BBD1E90024D1E90336224368
:100B20003343D1E905541A4303682A43D1E90765E1
:100B300022434FF6BF743243A3432A431A43026051
:100B4000426840F604734C698D689A4342EA144245
:100B50002A4342600A6AB2F5005F02D1898C89B2E9
:100B600001610122C16921F40061C161104670BDBB
:100B7000F0B587B018216846FFF792FB0420FFF715
:100B80001DFF8020FFF71AFF0820FFF717FF012045
:100B9000FFF714FF0220FFF711FF0F4D4FF08041C8
:100BA0000814A96141044700A961002400900126AE
:100BB00069462846CDE9016403940494FFF70AFFCF
:100BC00000976946CDE90164284603940494FFF731
:100BD00001FF07B0F0BD0000000C02402DE9F04716
:100BE00092B0282106A8FFF75BFB18216846FFF7A3
:100BF00057FB2C484FF4805A016841F48051016042
:100C0000006800F4805010900220FFF7D7FE022504
:100C1000DFF894900024694605270820CDE90005F7
:100C200003264846CDE90264CDE90447FFF7D2FE2A
:100C3000CDE904474FF010086946CDE90264CDE9DB
:100C400000854846FFF7C6FE20206946CDE900052D
:100C5000CDE90264CDE904474846FFF7BBFE4FF4F7
:100C600082712B020725CDE906414FF4E062CDE900
:100C70000824CDE90A43CDE90C84CDE90E450B4C9F
:100C800006A92046FFF741FF606820F01000606071
:100C9000606820F008006060C4F804A012B0BDE8ED
:100CA000F087000044380240000402400030014058
:100CB000FEE77047090700284FEA116106DA00F0E5
:100CC0000F0000F1E02080F8141D704700F1E020D3
:100CD00080F80014704770470268C2F3801262B156
:100CE0008268C2F34002002AFAD00173816811F0D1
:100CF000010FFBD0C068C0B270470020704770473A
:100D0000FFF728BB30B593B034216846FFF7C8FA27
:100D100014210DA8FFF7C4FAFFF7D0FB1A480168A9
:100D200041F080510160006800F080501290174837
:100D3000016821F4404141F48041016000680123D1
:100D40000224990500F4404012900420CDE90641A8
:100D500008A960224FF4A02581E815000B90684691
:100D6000CDE90035FFF778FCFFF772FBE0020021C8
:100D70000F22CDE90F1011900321CDE90D240DA80C
:100D8000FFF7A4FB13B030BD4038024000700040B4
:100D9000104A30B51048146800210F4B44F4700419
:100DA0001460083305680D4A0D4C45F001050560D7
:100DB00019600368051D1340074A03600C322C605C
:100DC0000568E305034C25F480250560803C11602F
:100DD000236030BD88ED00E000380240FFFFF6FEE2
:100DE00010300024FEE702E008C8121F08C1002AE4
:100DF000FAD170477047002001E001C1121F002A9C
:100E0000FBD17047FFF7AEFAFFF77CFFFFF7B0FEAC
:100E1000FFF7E4FE00F096F82248016841F0400137
:100E2000016000F09DF8062000F071F8022000F04B
:100E300026F9002000F014F91B4D4FF40046AE6176
:100E400001241A4F4FF4FA69DFF8648000F034F897
:100E50003860202117482246FFF71BFA1548202149
:100E600000F034F900F078F88006FBD500F065F862
:100E700080214046FFF764FA4846FFF74FFA641CAA
:100E8000E4B20A2C00D1012400F06AF8062000F038
:100E90003EF8022000F0F3F8002000F0E1F8AE6127
:100EA000D4E7000000300140000C024000000020A8
:100EB00000040240140000201CB50DA405222146A8
:100EC000302000F0EDF805226946102000F09CF873
:100ED0000020694614F8013B0A5C934201D00020CF
:100EE0001CBD401CC0B20528F4D301201CBD00006D
:100EF0006E52463234000000072010B500F09EF814
:100F000040F07001BDE81040072000F0E5B810B5D2
:100F10000528044601D9002106E0012000F08EF8E2
:100F20000121A14020EA0101BDE81040012000F0AC
:100F3000D3B8FF21E22000F0CFB8FF21E12000F07C
:100F4000CBB8000003484FF48041816141058161C5
:100F500070470000000C0240072000F06FB800004E
:100F60000821002010B500F0B7F83F21012000F063
:100F7000B3F80321022000F0AFF80321084600F087
:100F8000ABF80321042000F0A7F80221052000F0AF
:100F9000A3F80E21062000F09FF80021072000F0A2
:100FA0009BF80021112000F097F80021122000F09A
:100FB00093F80021132000F08FF80021142000F096
:100FC0008BF80021152000F087F80021162000F092
:100FD00083F800211C2000F07FF800211D2000F084
:100FE0007BF8FFF7A6FFFFF7A8FFFFF785FF024991
:100FF0004FF48040886110BD000C0240014601485A
:10100000FFF76ABE003001402DE9F0410A4E0D465F
:101010004FF0804114460F14B161FFF7EFFF04E079
:10102000FF20FFF7EBFF05F8010B601EC4B2F7D2FB
:10103000B761BDE8F0810000000C024070B5074CBC
:101040004FF080410D14A16100F01F00FFF7D6FFA3
:10105000FF20FFF7D3FFA56170BD0000000C024028
:1010600010B504460020FFF7E9FF04F0010120F06D
:1010700001000143BDE81040002000F02DB810B57C
:1010800004460020FFF7DAFF022C06D020F0020110
:10109000BDE81040002000F01FB840F00201F7E763
:1010A0002DE9F041084E0D464FF0804114460F14D3
:1010B000B16101E015F8010BFFF7A0FF601EC4B29B
:1010C000F8D2B761BDE8F081000C02400A46014643
:1010D000A020FFF7E5BF00002DE9F041104D0446C8
:1010E0004FF080400F460614A861202C06D204F071
:1010F0001F0040F02000FFF781FF0AE02046FFF7C5
:101100007DFFE12C08D0E22C06D0E32C04D0FF2C8C
:1011100002D03846FFF772FFAE61BDE8F0810000F3
:10112000000C024000000000000000000102030467
:1011300006070809541100080000002014000000F0
:10114000E60D0008681100081400002024040000C7
:10115000F60D000800000000010000001000000073
:08116000000000000024F4006F
:04000005080001F9F5
:00000001FF
